:100000000C942A000C9434000C9434000C943400AA
:100010000C9434000C9434000C9434000C94340090
:100020000C9434000C9434000C9434000C94340080
:100030000C9434000C9434000C9434000C94340070
:100040000C9434000C9434000C9434000C94340060
:100050000C94340011241FBECFE5D8E0DEBFCDBF25
:100060000E940B040C9495040C940000DF93CF9332
:10007000CDB7DEB7A7E2B0E0E7E2F0E080818064D0
:100080008C93A7E2B0E0E7E2F0E080818F778C9379
:10009000A7E2B0E0E7E2F0E080818F7D8C93A6E2FA
:1000A000B0E0E6E2F0E0808181608C93A6E2B0E00F
:1000B000E6E2F0E0808182608C93A6E2B0E0E6E2C6
:1000C000F0E080818B7F8C93A7E2B0E0E7E2F0E084
:1000D000808181608C93A7E2B0E0E7E2F0E080816C
:1000E0008D7F8C93A7E2B0E0E7E2F0E080818B7F28
:1000F0008C93A7E2B0E0E7E2F0E08081877F8C9309
:10010000A7E2B0E0E7E2F0E080818F7E8C93A6E288
:10011000B0E0E6E2F0E0808180688C93CF91DF91DF
:100120000895DF93CF9300D000D0CDB7DEB71C8207
:100130001B82A6E2B0E0E6E2F0E0808180648C936E
:10014000E6E2F0E0808182958F70882F90E08170E8
:1001500090700097A9F3A6E2B0E0E6E2F0E08081BB
:1001600080618C93E4E2F0E08081882F90E09A83B4
:100170008983E5E2F0E08081882F90E0982F88273E
:100180009C838B832B813C8189819A81822B932B49
:100190009C838B838B819C810F900F900F900F908D
:1001A000CF91DF910895DF93CF93CDB7DEB7279737
:1001B0000FB6F894DEBF0FBECDBF89836A834B8331
:1001C0008981843008F0EDC08A81883008F0E9C068
:1001D0008B81882309F073C08981282F30E03F8309
:1001E0002E838E819F818130910559F12E813F812F
:1001F000223031052CF48E819F81009769F05FC019
:100200002E813F812230310589F18E819F8183309B
:10021000910509F440C053C0AAE3B0E0EAE3F0E07E
:100220008081482F8A81282F30E081E090E0022EE3
:1002300002C0880F991F0A94E2F7809584238C935B
:100240003EC0A7E3B0E0E7E3F0E08081482F8A8179
:10025000282F30E081E090E0022E02C0880F991F25
:100260000A94E2F7809584238C9329C0A4E3B0E03C
:10027000E4E3F0E08081482F8A81282F30E081E09C
:1002800090E0022E02C0880F991F0A94E2F7809531
:1002900084238C9314C0A1E3B0E0E1E3F0E080811B
:1002A000482F8A81282F30E081E090E0022E02C0A2
:1002B000880F991F0A94E2F7809584238C938B8191
:1002C000813009F06EC08981282F30E03D832C8376
:1002D0008C819D818130910549F12C813D812230B5
:1002E00031052CF48C819D81009761F05AC02C81DE
:1002F0003D812230310571F18C819D8183309105E2
:10030000E9F14FC0AAE3B0E0EAE3F0E08081482FD2
:100310008A81282F30E081E090E0022E02C0880F11
:10032000991F0A94E2F7842B8C933BC0A7E3B0E0BB
:10033000E7E3F0E08081482F8A81282F30E081E0D8
:1003400090E0022E02C0880F991F0A94E2F7842BD6
:100350008C9327C0A4E3B0E0E4E3F0E08081482F71
:100360008A81282F30E081E090E0022E02C0880FC1
:10037000991F0A94E2F7842B8C9313C0A1E3B0E099
:10038000E1E3F0E08081482F8A81282F30E081E08E
:1003900090E0022E02C0880F991F0A94E2F7842B86
:1003A0008C9327960FB6F894DEBF0FBECDBFCF91CA
:1003B000DF910895DF93CF93CDB7DEB727970FB6C0
:1003C000F894DEBF0FBECDBF89836A834B838B81D8
:1003D000882309F073C08981282F30E03F832E8362
:1003E0008E819F818130910559F12E813F8122308C
:1003F00031052CF48E819F81009769F05FC02E81BA
:100400003F812230310589F18E819F8183309105B2
:1004100009F440C053C0ABE3B0E0EBE3F0E080810F
:10042000482F8A81282F30E081E090E0022E02C020
:10043000880F991F0A94E2F7809584238C933EC01D
:10044000A8E3B0E0E8E3F0E08081482F8A81282F1C
:1004500030E081E090E0022E02C0880F991F0A94DC
:10046000E2F7809584238C9329C0A5E3B0E0E5E30F
:10047000F0E08081482F8A81282F30E081E090E0F1
:10048000022E02C0880F991F0A94E2F780958423F8
:100490008C9314C0A2E3B0E0E2E3F0E08081482F47
:1004A0008A81282F30E081E090E0022E02C0880F80
:1004B000991F0A94E2F7809584238C938B81813075
:1004C00009F06EC08981282F30E03D832C838C8118
:1004D0009D818130910549F12C813D81223031058A
:1004E0002CF48C819D81009761F05AC02C813D8154
:1004F0002230310571F18C819D8183309105E9F1C4
:100500004FC0ABE3B0E0EBE3F0E08081482F8A819D
:10051000282F30E081E090E0022E02C0880F991F62
:100520000A94E2F7842B8C933BC0A8E3B0E0E8E3A5
:10053000F0E08081482F8A81282F30E081E090E030
:10054000022E02C0880F991F0A94E2F7842B8C9325
:1005500027C0A5E3B0E0E5E3F0E08081482F8A8181
:10056000282F30E081E090E0022E02C0880F991F12
:100570000A94E2F7842B8C9313C0A2E3B0E0E2E389
:10058000F0E08081482F8A81282F30E081E090E0E0
:10059000022E02C0880F991F0A94E2F7842B8C93D5
:1005A00027960FB6F894DEBF0FBECDBFCF91DF9177
:1005B0000895DF93CF9300D000D00F92CDB7DEB770
:1005C0008A836B838A81282F30E03D832C834C8182
:1005D0005D814130510541F18C819D8182309105D1
:1005E00034F42C813D812115310561F052C04C81DC
:1005F0005D814230510551F18C819D81833091059F
:10060000B9F147C0E9E3F0E08081282F30E08B8129
:10061000882F90E0A90102C0559547958A95E2F789
:10062000CA018170898335C0E6E3F0E08081282F1C
:1006300030E08B81882F90E0A90102C05595479545
:100640008A95E2F7CA018170898323C0E3E3F0E071
:100650008081282F30E08B81882F90E0A90102C093
:10066000559547958A95E2F7CA018170898311C033
:10067000E0E3F0E08081282F30E08B81882F90E04C
:10068000A90102C0559547958A95E2F7CA01817084
:10069000898389810F900F900F900F900F90CF91C9
:1006A000DF910895DF93CF93CDB7DEB782E062E0AC
:1006B00041E00E94D300CF91DF910895DF93CF9363
:1006C000CDB7DEB782E062E041E00E94DA01CF916F
:1006D000DF910895DF93CF93CDB7DEB782E062E07C
:1006E00040E00E94DA01CF91DF910895DF93CF932C
:1006F000CDB7DEB782E067E041E00E94D300CF9142
:10070000DF910895DF93CF93CDB7DEB782E067E046
:1007100041E00E94DA01CF91DF910895DF93CF93FA
:10072000CDB7DEB782E067E040E00E94DA01CF910A
:10073000DF910895DF93CF93CDB7DEB783E063E019
:1007400041E00E94D300CF91DF910895DF93CF93D2
:10075000CDB7DEB783E063E041E00E94DA01CF91DC
:10076000DF910895DF93CF93CDB7DEB783E063E0E9
:1007700040E00E94DA01CF91DF910895DF93CF939B
:10078000CDB7DEB7A3E5B0E0E3E5F0E080818160BE
:100790008C93A3E5B0E0E3E5F0E080818D7F8C935E
:1007A000A3E5B0E0E3E5F0E0808184608C93A3E50D
:1007B000B0E0E3E5F0E0808180648C93A3E5B0E0F5
:1007C000E3E5F0E0808188608C93A3E5B0E0E3E5A9
:1007D000F0E080818F7E8C93A3E5B0E0E3E5F0E06C
:1007E000808180628C93A7E3B0E0E7E3F0E0808152
:1007F00088608C93CF91DF910895DF93CF930F9210
:10080000CDB7DEB78983ECE5F0E0898180830F9076
:10081000CF91DF910895DF93CF93CDB7DEB72C97BB
:100820000FB6F894DEBF0FBECDBF9A8789877C874D
:100830006B870E9436000E94BE030E949100AA2787
:1008400097FDA095BA2F89839A83AB83BC83898156
:100850009A81AB81BC8128E833E140E050E0BC01E3
:10086000CD010E945404DC01CB012FEF33E040E0C6
:1008700050E0BC01CD010E947304DA01C9018D83EF
:100880009E83AF83B8878D819E81AF81B88524E632
:1008900030E040E050E0BC01CD010E947304DA0179
:1008A000C9010E94FD03C9CF629FD001739FF0016F
:1008B000829FE00DF11D649FE00DF11D929FF00DF0
:1008C000839FF00D749FF00D659FF00D9927729F27
:1008D000B00DE11DF91F639FB00DE11DF91FBD01B2
:1008E000CF0111240895A1E21A2EAA1BBB1BFD0102
:1008F0000DC0AA1FBB1FEE1FFF1FA217B307E407FF
:10090000F50720F0A21BB30BE40BF50B661F771F56
:10091000881F991F1A9469F7609570958095909536
:0E0920009B01AC01BD01CF010895F894FFCFFB
:00000001FF
