:100000000C942A000C9447000C9447000C94470071
:100010000C9447000C9447000C9447000C94470044
:100020000C9447000C9447000C9447000C94470034
:100030000C9447000C9447000C9447000C94470024
:100040000C9447000C9447000C9447000C94470014
:100050000C94470011241FBECFE5D8E0DEBFCDBF12
:1000600010E0A8E6B0E001C01D92A936B107E1F7A3
:1000700010E0A0E6B0E0E6E7FAE102C005900D92DC
:10008000A836B107D9F70E948A0B0C94390D0C944D
:100090000000EF92FF920F931F937B018C0120E0F1
:1000A00030E040E05FE40E94490388238CF0C801FF
:1000B000B70120E030E040E05FE40E94C1010E940F
:1000C000A9039B01AC01205030404040504806C07D
:1000D000C801B7010E94A9039B01AC01B901CA0183
:1000E0001F910F91FF90EF900895A0E0B0E0EBE733
:1000F000F0E00C94020DDC012B01FA019C9192308E
:1001000008F439C1EB018881823008F433C194309E
:1001100069F4843009F02FC111969C91119789815F
:10012000981709F428C1A0E6B0E025C1843009F48D
:1001300021C18230A9F4923009F01DC19A01AD01AC
:1001400088E0EA010990AE01E90109929E0181501F
:10015000C1F7E201898111969C918923818308C1AD
:10016000923009F407C112962D903C901397EB0141
:100170008A819B811496AD90BD90CD90DC901797AD
:10018000EC80FD800E811F819101281B390BB90184
:1001900037FF04C066277727621B730B6032710537
:1001A0000CF061C0121613066CF537014801062EDB
:1001B00004C096948794779467940A94D2F721E0C8
:1001C00030E040E050E004C0220F331F441F551FB1
:1001D0006A95D2F721503040404050402E213F21B7
:1001E00040235123211531054105510521F021E01E
:1001F00030E040E050E079018A01E628F72808293C
:1002000019293CC0232BD1F1260E371E350146019A
:10021000062E04C096948794779467940A94D2F734
:1002200021E030E040E050E004C0220F331F441FC3
:10023000551F6A95D2F721503040404050402A2146
:100240003B214C215D21211531054105510521F04E
:1002500021E030E040E050E059016A01A628B728CB
:10026000C828D9280BC0821593052CF01C01AA249C
:10027000BB24650103C0EE24FF24870111969C91E5
:10028000D20111968C91981709F445C0992339F041
:10029000A80197012A193B094C095D0906C0A6016E
:1002A00095012E193F09400B510B57FD08C01182D3
:1002B0003382228224833583468357831DC081E0A5
:1002C00081833382228288279927DC01821B930B4A
:1002D000A40BB50B84839583A683B7830DC0220F2F
:1002E000331F441F551F24833583468357838281E0
:1002F000938101979383828324813581468157813D
:10030000DA01C9010197A109B1098F5F9F4FAF4F72
:10031000BF4328F30BC0918333822282EA0CFB1C7B
:100320000C1D1D1DE482F5820683178383E0808304
:10033000248135814681578157FF1AC0C901AA27F8
:1003400097FDA095BA2F81709070A070B0705695EF
:10035000479537952795822B932BA42BB52B848318
:100360009583A683B7838281938101969383828349
:10037000DF0101C0D201CD01CDB7DEB7E2E10C94BF
:100380001E0DA0E2B0E0E7ECF1E00C940E0D6983E5
:100390007A838B839C832D833E834F835887E9E048
:1003A000EE2EF12CEC0EFD1ECE010196B7010E943F
:1003B000D2048E010F5E1F4FCE010596B8010E9438
:1003C000D2048A8991E089278A8BC701B801AE01DE
:1003D000475E5F4F0E9475000E94FD03A096E6E015
:1003E0000C942A0DA0E2B0E0E8EFF1E00C940E0DC1
:1003F00069837A838B839C832D833E834F835887C5
:10040000F9E0EF2EF12CEC0EFD1ECE010196B701A6
:100410000E94D2048E010F5E1F4FCE010596B801D7
:100420000E94D204C701B801AE01475E5F4F0E942F
:1004300075000E94FD03A096E6E00C942A0DA0E250
:10044000B0E0E5E2F2E00C94020D69837A838B83DD
:100450009C832D833E834F835887CE010196BE0136
:10046000675F7F4F0E94D204CE010596BE016F5E8A
:100470007F4F0E94D2049985923088F0898982301A
:10048000C8F0943019F4823051F404C0843029F457
:10049000923081F480E690E0C6C0923049F420E0CA
:1004A0009A858A89981321E02A87CE010996BBC0D4
:1004B000823049F420E09A858A89981321E02A8BBA
:1004C000CE014196B0C02D843E844F8458886D88FB
:1004D0007E888F88988CEE24FF248701AA24BB2471
:1004E000650140E050E060E070E0E0E0F0E0C10174
:1004F00081709070892BE9F0E60CF71C081D191D1E
:100500009A01AB012A0D3B1D4C1D5D1D80E090E062
:10051000A0E0B0E0E614F7040805190520F481E036
:1005200090E0A0E0B0E0BA01A901480F591F6A1F8E
:100530007B1FAA0CBB1CCC1CDD1C97FE08C081E0F5
:1005400090E0A0E0B0E0A82AB92ACA2ADB2A3196B6
:10055000E032F10549F0660C771C881C991C569412
:10056000479437942794C3CFFA85EA892B893C892D
:100570008B859C85280F391F2E5F3F4F17C0CA01FE
:1005800081709070892B61F016950795F794E79428
:1005900080E090E0A0E0B0E8E82AF92A0A2B1B2BC3
:1005A00076956795579547952F5F3F4F77FDE7CF36
:1005B0000CC0440F551F661F771F17FD4160EE0CDE
:1005C000FF1C001F111F21503040403090E05907A0
:1005D00090E0690790E4790760F32B8F3C8FDB0193
:1005E000CA018F779070A070B07080349105A1051A
:1005F000B10561F447FD0AC0E114F10401051105DC
:1006000029F0405C5F4F6F4F7F4F40781A8EFE1786
:1006100011F081E08A8F4D8F5E8F6F8F78A383E01A
:10062000898FCE0149960E94FD03A096E2E10C94C9
:100630001E0DA8E1B0E0EFE1F3E00C940E0D69832C
:100640007A838B839C832D833E834F83588789E0F5
:10065000E82EF12CEC0EFD1ECE010196B7010E9492
:10066000D2048E010F5E1F4FCE010596B8010E9485
:10067000D2048985823040F08989823028F0C70110
:10068000B8010E944A0501C08FEF6896E6E00C941D
:100690002A0DA8E1B0E0EFE4F3E00C940E0D6983BD
:1006A0007A838B839C832D833E834F83588789E095
:1006B000E82EF12CEC0EFD1ECE010196B7010E9432
:1006C000D2048E010F5E1F4FCE010596B8010E9425
:1006D000D2048985823040F08989823028F0C701B0
:1006E000B8010E944A0501C08FEF6896E6E00C94BD
:1006F0002A0DA8E1B0E0EFE7F3E00C940E0D69835A
:100700007A838B839C832D833E834F83588789E034
:10071000E82EF12CEC0EFD1ECE010196B7010E94D1
:10072000D2048E010F5E1F4FCE010596B8010E94C4
:10073000D2048985823040F08989823028F0C7014F
:10074000B8010E944A0501C081E06896E6E00C9479
:100750002A0DACE0B0E0EFEAF3E00C94120D6983EF
:100760007A838B839C83CE010196BE016B5F7F4FA2
:100770000E94D2048D81823061F1823050F1843048
:1007800021F48E81882351F12EC02F81388537FDC9
:1007900020C06E812F3131051CF06623F9F023C093
:1007A0008EE190E0821B930B29853A854B855C8511
:1007B00004C056954795379527958A95D2F76623B5
:1007C000B1F050954095309521953F4F4F4F5F4F79
:1007D0000EC020E030E040E050E009C02FEF3FEFD6
:1007E0004FEF5FE704C020E030E040E050E8B9019F
:1007F000CA012C96E2E00C942E0DDF92EF92FF924C
:100800000F931F93FC01E480F58006811781D1804E
:100810008081823048F480E090E0A0E1B0E0E82AF6
:10082000F92A0A2B1B2BA5C0843009F49FC0823003
:1008300021F4EE24FF24870105C0E114F104010531
:10084000110519F4E0E0F0E096C0628173819FEF3A
:10085000623879070CF05BC022E83FEF261B370BAC
:100860002A3131052CF020E030E040E050E02AC091
:10087000B801A701022E04C0769567955795479554
:100880000A94D2F781E090E0A0E0B0E004C0880FC5
:10089000991FAA1FBB1F2A95D2F70197A109B10979
:1008A0008E219F21A023B1230097A105B10521F03E
:1008B00081E090E0A0E0B0E09A01AB01282B392B59
:1008C0004A2B5B2BDA01C9018F779070A070B07052
:1008D00080349105A105B10539F427FF09C0205CDA
:1008E0003F4F4F4F5F4F04C0215C3F4F4F4F5F4F13
:1008F000E0E0F0E02030A0E03A07A0E04A07A0E402
:100900005A0710F0E1E0F0E079018A0127C0603871
:10091000710564F5FB01E158FF4FD801C7018F77DE
:100920009070A070B07080349105A105B10539F4C4
:10093000E7FE0DC080E490E0A0E0B0E004C08FE3EB
:1009400090E0A0E0B0E0E80EF91E0A1F1B1F17FFA1
:1009500005C016950795F794E794319687E01695AC
:100960000795F794E7948A95D1F705C0EE24FF2404
:100970008701EFEFF0E06E2F679566276795902F60
:100980009F77D794DD24D7948E2F8695492F462BB9
:10099000582F5D29B701CA011F910F91FF90EF9069
:1009A000DF900895FC01DB01408151812281622F9B
:1009B0006F7770E0221F2227221F9381892F880FD3
:1009C000822B282F30E0991F9927991F11969C930D
:1009D000119721153105A9F54115510561057105DD
:1009E00011F482E037C082E89FEF13969C938E93B8
:1009F00012979A01AB0167E0220F331F441F551F66
:100A00006A95D1F783E08C930DC0220F331F441FEA
:100A1000551F12968D919C911397019713969C9355
:100A20008E931297203080E0380780E0480780E4FA
:100A3000580758F314962D933D934D935C93179755
:100A400008952F3F310579F4411551056105710570
:100A500019F484E08C93089564FF03C081E08C93C3
:100A600012C01C9210C02F57304013963C932E9307
:100A7000129783E08C9387E0440F551F661F771F02
:100A80008A95D1F7706414964D935D936D937C9322
:100A9000179708951F93DC01FB019C91923008F495
:100AA00047C08081823008F443C0943051F41196DD
:100AB0001C91843099F58181682F70E0611B710968
:100AC0003FC0843021F0923031F48230B9F181811D
:100AD000882389F12DC011961C9111978230F1F075
:100AE00081811817D9F412962D913C911397828128
:100AF00093818217930794F028173907BCF0149656
:100B00008D919D910D90BC91A02D248135814681C0
:100B10005781281739074A075B0718F4112341F05A
:100B20000AC082179307A407B50740F4112319F0F0
:100B300061E070E005C06FEF7FEF02C060E070E041
:100B4000CB011F910895DF93CF93CDB7DEB72797E1
:100B50000FB6F894DEBF0FBECDBF89836A834B8387
:100B60008981843008F0EEC08A81883008F0EAC0BC
:100B70008B81813009F06FC08981282F30E03F835D
:100B80002E838E819F818130910549F12E813F8195
:100B9000223031052CF48E819F81009761F0D2C004
:100BA0002E813F812230310571F18E819F8183300A
:100BB0009105E9F1C7C0AAE3B0E0EAE3F0E0808183
:100BC000482F8A81282F30E081E090E0022E02C079
:100BD000880F991F0A94E2F7842B8C93B3C0A7E384
:100BE000B0E0E7E3F0E08081482F8A81282F30E0F1
:100BF00081E090E0022E02C0880F991F0A94E2F76C
:100C0000842B8C939FC0A4E3B0E0E4E3F0E0808108
:100C1000482F8A81282F30E081E090E0022E02C028
:100C2000880F991F0A94E2F7842B8C938BC0A1E361
:100C3000B0E0E1E3F0E08081482F8A81282F30E0A6
:100C400081E090E0022E02C0880F991F0A94E2F71B
:100C5000842B8C9377C08B81882309F073C08981A2
:100C6000282F30E03D832C838C819D81813091053C
:100C700059F12C813D81223031052CF48C819D81EC
:100C8000009769F05FC02C813D812230310589F1E8
:100C90008C819D818330910509F440C053C0AAE343
:100CA000B0E0EAE3F0E08081482F8A81282F30E02D
:100CB00081E090E0022E02C0880F991F0A94E2F7AB
:100CC000809584238C933EC0A7E3B0E0E7E3F0E097
:100CD0008081482F8A81282F30E081E090E0022E29
:100CE00002C0880F991F0A94E2F7809584238C93A1
:100CF00029C0A4E3B0E0E4E3F0E08081482F8A81DA
:100D0000282F30E081E090E0022E02C0880F991F6A
:100D10000A94E2F7809584238C9314C0A1E3B0E099
:100D2000E1E3F0E08081482F8A81282F30E081E0E4
:100D300090E0022E02C0880F991F0A94E2F7809576
:100D400084238C9327960FB6F894DEBF0FBECDBFD9
:100D5000CF91DF910895DF93CF93CDB7DEB727977B
:100D60000FB6F894DEBF0FBECDBF89836A834B8375
:100D70008981843008F0EEC08A81883008F0EAC0AA
:100D80008B81882309F074C08981282F30E03F834C
:100D90002E838E819F818130910559F12E813F8173
:100DA000223031052CF48E819F81009769F0D2C0EA
:100DB0002E813F812230310589F18E819F818330E0
:100DC000910509F440C0C6C0ABE3B0E0EBE3F0E04E
:100DD0008081482F8A81282F30E081E090E0022E28
:100DE00002C0880F991F0A94E2F7809584238C93A0
:100DF000B1C0A8E3B0E0E8E3F0E08081482F8A8149
:100E0000282F30E081E090E0022E02C0880F991F69
:100E10000A94E2F7809584238C939CC0A5E3B0E00C
:100E2000E5E3F0E08081482F8A81282F30E081E0DF
:100E300090E0022E02C0880F991F0A94E2F7809575
:100E400084238C9387C0A2E3B0E0E2E3F0E08081EA
:100E5000482F8A81282F30E081E090E0022E02C0E6
:100E6000880F991F0A94E2F7809584238C9372C0AF
:100E70008B81813009F06EC08981282F30E03D835D
:100E80002C838C819D818130910549F12C813D819C
:100E9000223031052CF48C819D81009761F05AC07D
:100EA0002C813D812230310571F18C819D8183300F
:100EB0009105E9F14FC0ABE3B0E0EBE3F0E08081F6
:100EC000482F8A81282F30E081E090E0022E02C076
:100ED000880F991F0A94E2F7842B8C933BC0A8E3F8
:100EE000B0E0E8E3F0E08081482F8A81282F30E0ED
:100EF00081E090E0022E02C0880F991F0A94E2F769
:100F0000842B8C9327C0A5E3B0E0E5E3F0E080817B
:100F1000482F8A81282F30E081E090E0022E02C025
:100F2000880F991F0A94E2F7842B8C9313C0A2E3D5
:100F3000B0E0E2E3F0E08081482F8A81282F30E0A2
:100F400081E090E0022E02C0880F991F0A94E2F718
:100F5000842B8C9327960FB6F894DEBF0FBECDBFBF
:100F6000CF91DF910895DF93CF9300D000D00F92FF
:100F7000CDB7DEB78A836B8319828A81843008F00B
:100F80006CC08B81883008F068C08A81282F30E0DF
:100F90003D832C834C815D814130510541F18C8131
:100FA0009D818230910534F42C813D8121153105DC
:100FB00061F055C04C815D814230510551F18C8109
:100FC0009D8183309105B9F14AC0E9E3F0E0808169
:100FD000282F30E08B81882F90E0A90102C0559521
:100FE00047958A95E2F7CA018170898338C0E6E3A4
:100FF000F0E08081282F30E08B81882F90E0A901DC
:1010000002C0559547958A95E2F7CA018170898398
:1010100026C0E3E3F0E08081282F30E08B81882F29
:1010200090E0A90102C0559547958A95E2F7CA015B
:101030008170898314C0E0E3F0E08081282F30E0E4
:101040008B81882F90E0A90102C0559547958A951C
:10105000E2F7CA018170898302C08FEF8983898199
:101060000F900F900F900F900F90CF91DF910895F8
:10107000DF93CF93CDB7DEB70E94320ACF91DF91D5
:101080000895DF93CF9300D000D00F92CDB7DEB795
:101090009D838C831B821A820E94560A8C819D81BB
:1010A0008F3F910509F080F48C819D819B838A8319
:1010B00080E50E948A0A8A810E94D50A0E94700AED
:1010C00080E50E94AC0AD1C08C819D818F3F910543
:1010D000C9F0C0F08C819D8122E08030920790F4AD
:1010E0008C819D81805091409B838A8382E50E9400
:1010F0008A0A8A810E94D50A0E94700A82E50E94AB
:10110000AC0AB3C08C819D8122E080309207C0F090
:101110008C819D8123E08030920790F48C819D81A9
:10112000805092409B838A8384E50E948A0A8A8148
:101130000E94D50A0E94700A84E50E94AC0A95C0FC
:101140008C819D8123E080309207C0F08C819D814D
:1011500024E08030920790F48C819D8180509340F0
:101160009B838A8386E50E948A0A8A810E94D50A27
:101170000E94700A86E50E94AC0A77C08C819D812E
:1011800024E080309207C0F08C819D8125E0803082
:10119000920790F48C819D81805094409B838A8338
:1011A00088E50E948A0A8A810E94D50A0E94700AF4
:1011B00088E50E94AC0A59C08C819D8125E0803071
:1011C0009207C0F08C819D8126E08030920790F4D8
:1011D0008C819D81805095409B838A838AE50E9403
:1011E0008A0A8A810E94D50A0E94700A8AE50E94B2
:1011F000AC0A3BC08C819D8126E080309207C0F014
:101200008C819D8127E08030920790F48C819D81B4
:10121000805096409B838A838CE50E948A0A8A814B
:101220000E94D50A0E94700A8CE50E94AC0A1DC07B
:101230008C819D8127E080309207B8F08C819D8160
:1012400028E08030920788F48C819D8180509740FF
:101250009B838A838EE50E948A0A8A810E94D50A2E
:101260000E94700A8EE50E94AC0A0E94F60A8983E9
:101270000E94130B89810F900F900F900F900F9089
:10128000CF91DF910895DF93CF9300D000D00F92DC
:10129000CDB7DEB79C838B836D831A8219820E943F
:1012A000560A8B819C818F3F910509F070F48B81E8
:1012B0009C819A83898380E50E948A0A89810E94A1
:1012C000D50A8D810E94D50AC3C08B819C818F3F36
:1012D0009105B9F0B0F08B819C8122E080309207BB
:1012E00080F48B819C81805091409A83898382E530
:1012F0000E948A0A89810E94D50A8D810E94D50A9E
:10130000A7C08B819C8122E080309207B0F08B8156
:101310009C8123E08030920780F48B819C818050F7
:1013200092409A83898384E50E948A0A89810E9477
:10133000D50A8D810E94D50A8BC08B819C8123E0C8
:1013400080309207B0F08B819C8124E0803092073E
:1013500080F48B819C81805093409A83898386E5B9
:101360000E948A0A89810E94D50A8D810E94D50A2D
:101370006FC08B819C8124E080309207B0F08B811C
:101380009C8125E08030920780F48B819C81805085
:1013900094409A83898388E50E948A0A89810E9401
:1013A000D50A8D810E94D50A53C08B819C8125E08E
:1013B00080309207B0F08B819C8126E080309207CC
:1013C00080F48B819C81805095409A8389838AE543
:1013D0000E948A0A89810E94D50A8D810E94D50ABD
:1013E00037C08B819C8126E080309207B0F08B81E2
:1013F0009C8127E08030920780F48B819C81805013
:1014000096409A8389838CE50E948A0A89810E948A
:10141000D50A8D810E94D50A1BC08B819C8127E053
:1014200080309207A8F08B819C8128E08030920761
:1014300078F48B819C81805097409A8389838EE5D4
:101440000E948A0A89810E94D50A8D810E94D50A4C
:101450000E94130B0F900F900F900F900F90CF9151
:10146000DF910895DF93CF93CDB7DEB7E0E2F0E0F0
:1014700083E08083A6E5B0E0E6E5F0E0808184606B
:101480008C93CF91DF910895DF93CF93CDB7DEB7E3
:10149000E2E2F0E086E08083A6E5B0E0E6E5F0E099
:1014A000808184608C93CF91DF910895DF93CF93F7
:1014B000CDB7DEB7E6E5F0E084EA8083E6E5F0E06C
:1014C00080818823DCF7E1E2F0E08081882F90E0E2
:1014D000887F907088309105B1F7CF91DF910895A2
:1014E000DF93CF93CDB7DEB7E6E5F0E084EA808303
:1014F000E6E5F0E080818823DCF7E1E2F0E080813E
:10150000882F90E0887F907080319105B1F7CF915E
:10151000DF910895DF93CF930F92CDB7DEB7898324
:10152000E3E2F0E08981880F8083E6E5F0E084E87B
:101530008083E6E5F0E080818823DCF7E1E2F0E0FB
:101540008081882F90E0887F907088319105B1F775
:101550000F90CF91DF910895DF93CF930F92CDB786
:10156000DEB78983E3E2F0E08981880F8083A3E21C
:10157000B0E0E3E2F0E0808181608C93E6E5F0E0AA
:1015800084E88083E6E5F0E080818823DCF7E1E20F
:10159000F0E08081882F90E0887F90708034910502
:1015A000B1F70F90CF91DF910895DF93CF930F9212
:1015B000CDB7DEB78983E3E2F0E089818083E6E599
:1015C000F0E084E88083E6E5F0E080818823DCF7C2
:1015D000E1E2F0E08081882F90E0887F907088328F
:1015E0009105B1F70F90CF91DF910895DF93CF93DD
:1015F000CDB7DEB7E6E5F0E084E88083E6E5F0E02D
:1016000080818823DCF7E1E2F0E08081882F90E0A0
:10161000887F907088359105B1F7E3E2F0E0808132
:10162000CF91DF910895DF93CF93CDB7DEB7E6E595
:10163000F0E084E98083CF91DF910895DF93CF9329
:10164000CDB7DEB782E062E041E00E94A305CF9112
:10165000DF910895DF93CF93CDB7DEB782E062E0EC
:1016600041E00E94AB06CF91DF910895DF93CF93C5
:10167000CDB7DEB782E062E040E00E94AB06CF91DA
:10168000DF910895DF93CF93CDB7DEB782E067E0B7
:1016900041E00E94A305CF91DF910895DF93CF939E
:1016A000CDB7DEB782E067E041E00E94AB06CF91A4
:1016B000DF910895DF93CF93CDB7DEB782E067E087
:1016C00040E00E94AB06CF91DF910895DF93CF9366
:1016D000CDB7DEB783E063E041E00E94A305CF9180
:1016E000DF910895DF93CF93CDB7DEB783E063E05A
:1016F00041E00E94AB06CF91DF910895DF93CF9335
:10170000CDB7DEB783E063E040E00E94AB06CF9147
:10171000DF910895DF93CF93CDB7DEB7AA970FB6C9
:10172000F894DEBF0FBECDBF109268000E94420B3E
:101730000E94380880E090E0A8ECB2E48FA398A75C
:10174000A9A7BAA76FA178A589A59AA520E030E03E
:101750004AE755E40E941F02DC01CB018BA39CA346
:10176000ADA3BEA36BA17CA18DA19EA120E030E022
:1017700040E85FE30E94790388232CF481E090E045
:101780009AA389A33FC06BA17CA18DA19EA120E05B
:101790003FEF4FE757E40E94190318164CF56FA16D
:1017A00078A589A59AA520E030E040E251E40E94A6
:1017B0001F02DC01CB01BC01CD010E944900DC010C
:1017C000CB019AA389A30FC080E991E098A38F8FE2
:1017D0008F8D98A10197F1F798A38F8F89A19AA176
:1017E00001979AA389A389A19AA1009769F714C0C8
:1017F0006BA17CA18DA19EA10E944900DC01CB01BF
:101800009AA389A389A19AA19E8F8D8F8D8D9E8D7C
:101810000197F1F79E8F8D8F8CEB92E06FE00E9425
:10182000430980E090E0A8ECB2E4898F9A8FAB8FF7
:10183000BC8F698D7A8D8B8D9C8D20E030E04AE7DE
:1018400055E40E941F02DC01CB018D8B9E8BAF8B78
:10185000B88F6D897E898F89988D20E030E040E8CF
:101860005FE30E94790388232CF481E090E09C8B55
:101870008B8B3FC06D897E898F89988D20E03FEFEB
:101880004FE757E40E94190318164CF5698D7A8DBD
:101890008B8D9C8D20E030E040E251E40E941F02DD
:1018A000DC01CB01BC01CD010E944900DC01CB0170
:1018B0009C8B8B8B0FC080E991E09A8B898B8989F7
:1018C0009A890197F1F79A8B898B8B899C8901976B
:1018D0009C8B8B8B8B899C89009769F714C06D89D1
:1018E0007E898F89988D0E944900DC01CB019C8BF9
:1018F0008B8B8B899C89988B8F878F859889019793
:10190000F1F7988B8F878CEB92E00E9441088093CF
:10191000680080E090E0A8ECB2E48B879C87AD87FC
:10192000BE876B857C858D859E8520E030E04AE70B
:1019300055E40E941F02DC01CB018F839887A987A1
:10194000BA876F81788589859A8520E030E040E804
:101950005FE30E94790388232CF481E090E09E836A
:101960008D833FC06F81788589859A8520E03FEF20
:101970004FE757E40E94190318164CF56B857C85D8
:101980008D859E8520E030E040E251E40E941F02F8
:10199000DC01CB01BC01CD010E944900DC01CB017F
:1019A0009E838D830FC080E991E09C838B838B8124
:1019B0009C810197F1F79C838B838D819E81019798
:1019C0009E838D838D819E81009769F714C06F81FE
:1019D000788589859A850E944900DC01CB019E8328
:1019E0008D838D819E819A83898389819A810197D4
:1019F000F1F79A838983809168008F3011F40E94F7
:101A00004E0BFFCF2F923F924F925F926F927F9239
:101A10008F929F92AF92BF92CF92DF92EF92FF92FE
:101A20000F931F93CF93DF93CDB7DEB7CA1BDB0BAA
:101A30000FB6F894DEBF0FBECDBF09942A8839884F
:101A400048885F846E847D848C849B84AA84B98456
:101A5000C884DF80EE80FD800C811B81AA81B98162
:101A6000CE0FD11D0FB6F894DEBF0FBECDBFED0176
:061A70000895F894FFCF79
:081A7600000000000000000068
:00000001FF
