:100000000C942A000C9434000C9434000C943400AA
:100010000C9434000C9434000C9434000C94340090
:100020000C9434000C9434000C9434000C94340080
:100030000C9434000C9434000C9434000C94340070
:100040000C9434000C9434000C9434000C94340060
:100050000C94340011241FBECFE5D8E0DEBFCDBF25
:100060000E9436000C942A010C940000DF93CF9379
:100070000F92CDB7DEB7A4E3B0E0E4E3F0E0808117
:1000800084608C93A4E3B0E0E4E3F0E080818068D6
:100090008C93A1E3B0E0E1E3F0E0808188608C9391
:1000A000A1E3B0E0E1E3F0E080818B7F8C93A1E3FA
:1000B000B0E0E1E3F0E080818F7B8C931982E0E394
:1000C000F0E0808186958695882F90E08170907011
:1000D000882309F457C08981873008F053C0E0E3D2
:1000E000F0E0808186958695882F90E081709070F1
:1000F0008823A9F789818F5F89838981882F90E080
:1001000081709070882341F0A5E3B0E0E5E3F0E072
:10011000808184608C9307C0A5E3B0E0E5E3F0E064
:1001200080818B7F8C9389818695882F90E0817068
:100130009070882341F0A5E3B0E0E5E3F0E0808132
:1001400080688C9307C0A5E3B0E0E5E3F0E0808130
:100150008F778C93898186958695882F90E0817022
:100160009070882341F0A2E3B0E0E2E3F0E0808108
:1001700088608C9307C0A2E3B0E0E2E3F0E0808106
:10018000877F8C93E0E3F0E0808182958695869569
:100190008370882F90E081709070882309F48FCF4E
:1001A0008981882309F48BCFE0E3F0E08081829598
:1001B000869586958370882F90E081709070882353
:1001C00099F78981815089838981882F90E0817096
:1001D0009070882341F0A5E3B0E0E5E3F0E0808192
:1001E00084608C9307C0A5E3B0E0E5E3F0E0808194
:1001F0008B7F8C9389818695882F90E08170907099
:10020000882341F0A5E3B0E0E5E3F0E08081806879
:100210008C9307C0A5E3B0E0E5E3F0E080818F7741
:100220008C93898186958695882F90E08170907057
:10023000882341F0A2E3B0E0E2E3F0E0808188604F
:100240008C933DCFA2E3B0E0E2E3F0E08081877FD2
:080250008C9335CFF894FFCF29
:00000001FF
